{
  "_format": "hh-sol-artifact-1",
  "contractName": "Token",
  "sourceName": "contracts/Token.sol",
  "abi": [
    {
      "inputs": [
        {
          "internalType": "uint256",
          "name": "_totalSupply",
          "type": "uint256"
        }
      ],
      "stateMutability": "nonpayable",
      "type": "constructor"
    },
    {
      "inputs": [
        {
          "internalType": "address",
          "name": "_address",
          "type": "address"
        }
      ],
      "name": "balanceOf",
      "outputs": [
        {
          "internalType": "uint256",
          "name": "result",
          "type": "uint256"
        }
      ],
      "stateMutability": "view",
      "type": "function"
    },
    {
      "inputs": [],
      "name": "getTotalSupply",
      "outputs": [
        {
          "internalType": "uint256",
          "name": "_totalSupply",
          "type": "uint256"
        }
      ],
      "stateMutability": "view",
      "type": "function"
    },
    {
      "inputs": [],
      "name": "name",
      "outputs": [
        {
          "internalType": "string",
          "name": "",
          "type": "string"
        }
      ],
      "stateMutability": "view",
      "type": "function"
    },
    {
      "inputs": [],
      "name": "symbol",
      "outputs": [
        {
          "internalType": "string",
          "name": "",
          "type": "string"
        }
      ],
      "stateMutability": "view",
      "type": "function"
    },
    {
      "inputs": [
        {
          "internalType": "uint256",
          "name": "_amount",
          "type": "uint256"
        },
        {
          "internalType": "address",
          "name": "_to",
          "type": "address"
        }
      ],
      "name": "transfer",
      "outputs": [],
      "stateMutability": "nonpayable",
      "type": "function"
    }
  ],
  "bytecode": "0x60806040526040518060400160405280600281526020017f4d5400000000000000000000000000000000000000000000000000000000000081525060019080519060200190620000519291906200014e565b503480156200005f57600080fd5b5060405162000a6638038062000a6683398181016040528101906200008591906200023e565b336000806101000a81548173ffffffffffffffffffffffffffffffffffffffff021916908373ffffffffffffffffffffffffffffffffffffffff16021790555080600281905550600254600360008060009054906101000a900473ffffffffffffffffffffffffffffffffffffffff1673ffffffffffffffffffffffffffffffffffffffff1673ffffffffffffffffffffffffffffffffffffffff16815260200190815260200160002060008282546200014091906200029f565b925050819055505062000361565b8280546200015c906200032b565b90600052602060002090601f016020900481019282620001805760008555620001cc565b82601f106200019b57805160ff1916838001178555620001cc565b82800160010185558215620001cc579182015b82811115620001cb578251825591602001919060010190620001ae565b5b509050620001db9190620001df565b5090565b5b80821115620001fa576000816000905550600101620001e0565b5090565b600080fd5b6000819050919050565b620002188162000203565b81146200022457600080fd5b50565b60008151905062000238816200020d565b92915050565b600060208284031215620002575762000256620001fe565b5b6000620002678482850162000227565b91505092915050565b7f4e487b7100000000000000000000000000000000000000000000000000000000600052601160045260246000fd5b6000620002ac8262000203565b9150620002b98362000203565b9250827fffffffffffffffffffffffffffffffffffffffffffffffffffffffffffffffff03821115620002f157620002f062000270565b5b828201905092915050565b7f4e487b7100000000000000000000000000000000000000000000000000000000600052602260045260246000fd5b600060028204905060018216806200034457607f821691505b602082108114156200035b576200035a620002fc565b5b50919050565b6106f580620003716000396000f3fe608060405234801561001057600080fd5b50600436106100575760003560e01c806306fdde031461005c57806370a082311461007a57806395d89b41146100aa578063b7760c8f146100c8578063c4e41b22146100e4575b600080fd5b610064610102565b60405161007191906103e7565b60405180910390f35b610094600480360381019061008f919061046c565b61013b565b6040516100a191906104b2565b60405180910390f35b6100b2610184565b6040516100bf91906103e7565b60405180910390f35b6100e260048036038101906100dd91906104f9565b610212565b005b6100ec610344565b6040516100f991906104b2565b60405180910390f35b6040518060400160405280600781526020017f4d79546f6b656e0000000000000000000000000000000000000000000000000081525081565b6000600360008373ffffffffffffffffffffffffffffffffffffffff1673ffffffffffffffffffffffffffffffffffffffff168152602001908152602001600020549050919050565b6001805461019190610568565b80601f01602080910402602001604051908101604052809291908181526020018280546101bd90610568565b801561020a5780601f106101df5761010080835404028352916020019161020a565b820191906000526020600020905b8154815290600101906020018083116101ed57829003601f168201915b505050505081565b81600360003373ffffffffffffffffffffffffffffffffffffffff1673ffffffffffffffffffffffffffffffffffffffff168152602001908152602001600020541015610294576040517f08c379a000000000000000000000000000000000000000000000000000000000815260040161028b906105e6565b60405180910390fd5b81600360003373ffffffffffffffffffffffffffffffffffffffff1673ffffffffffffffffffffffffffffffffffffffff16815260200190815260200160002060008282546102e39190610635565b9250508190555081600360008373ffffffffffffffffffffffffffffffffffffffff1673ffffffffffffffffffffffffffffffffffffffff16815260200190815260200160002060008282546103399190610669565b925050819055505050565b6000600254905090565b600081519050919050565b600082825260208201905092915050565b60005b8381101561038857808201518184015260208101905061036d565b83811115610397576000848401525b50505050565b6000601f19601f8301169050919050565b60006103b98261034e565b6103c38185610359565b93506103d381856020860161036a565b6103dc8161039d565b840191505092915050565b6000602082019050818103600083015261040181846103ae565b905092915050565b600080fd5b600073ffffffffffffffffffffffffffffffffffffffff82169050919050565b60006104398261040e565b9050919050565b6104498161042e565b811461045457600080fd5b50565b60008135905061046681610440565b92915050565b60006020828403121561048257610481610409565b5b600061049084828501610457565b91505092915050565b6000819050919050565b6104ac81610499565b82525050565b60006020820190506104c760008301846104a3565b92915050565b6104d681610499565b81146104e157600080fd5b50565b6000813590506104f3816104cd565b92915050565b600080604083850312156105105761050f610409565b5b600061051e858286016104e4565b925050602061052f85828601610457565b9150509250929050565b7f4e487b7100000000000000000000000000000000000000000000000000000000600052602260045260246000fd5b6000600282049050600182168061058057607f821691505b6020821081141561059457610593610539565b5b50919050565b7f4e6f7420656e6f7567682066756e647300000000000000000000000000000000600082015250565b60006105d0601083610359565b91506105db8261059a565b602082019050919050565b600060208201905081810360008301526105ff816105c3565b9050919050565b7f4e487b7100000000000000000000000000000000000000000000000000000000600052601160045260246000fd5b600061064082610499565b915061064b83610499565b92508282101561065e5761065d610606565b5b828203905092915050565b600061067482610499565b915061067f83610499565b9250827fffffffffffffffffffffffffffffffffffffffffffffffffffffffffffffffff038211156106b4576106b3610606565b5b82820190509291505056fea26469706673582212202699e7fa2a884c0bfc615d522d1e147979839766431fb1c4664549d328e8985c64736f6c63430008080033",
  "linkReferences": {},
  "deployedLinkReferences": {}
}